:100000000C9449000C9400000C9400000C94000027
:100010000C9400000C9400000C9400000C94000060
:100020000C9400000C9400000C9400000C94000050
:100030000C9400000C9400000C9400000C94000040
:100040000C9400000C9400000C9400000C947600BA
:100050000C9400001027E80364000A00010000105F
:100060000001100001000000000000000000253029
:1000700032643A253032643A253032643A253032DF
:10008000640080C008000400660002006001820075
:100090000000F894EE27ECBBF1E0FBBFEBBFE5BF3F
:1000A0008DE0A2E0BB27ED938A95E9F780E094E02C
:1000B000A0E6ED930197E9F7E4E8F0E085919591EA
:1000C000009761F0A591B59105901590BF01F001E1
:1000D00005900D920197E1F7FB01F0CFEFE5EDBF41
:1000E000E4E0EEBFC0E6D1E00C94DA000A921A9286
:1000F000FA926A937A938A939A93AA93BA93EA9319
:10010000FA93EFB7EA936497F20131962F01E4E690
:10011000F0E0E415F50501F5F30131963F014424C3
:100120005524ECE3F0E0E615F705B1F4F40131965F
:100130004F0166247724ECE3F0E0E815F90561F45B
:10014000F50131965F0188249924E8E1F0E0EA1591
:10015000FB0511F4AA24BB24FE01FA93EA93EEE610
:10016000F0E0FA93EA93F5010E943803F4010E944B
:100170003803F3010E943803F2010E94380380E142
:100180000E945C026496E0E0EA93A0E00E94B00264
:10019000DE010E94E0026496E991EFBFF991E991D6
:1001A000B991A9919991899179916991F990199051
:1001B00009901895EDE1E3BFE0E0E2BFEAE0ECBFB3
:1001C000E2E0E9BFA0E10E94F1027894FFCFFFCF07
:1001D000BA93AA931A930A93AA81BB8112960E949A
:1001E0008D03309759F1AA81BB8114960E948D032B
:1001F0008F01309761F00230E0E01E0798F0F801BF
:1002000031978F01AA81BB811496ED93FC93AA814B
:10021000BB811296ED91FD913196FE93EE9331974D
:10022000AC81A083AA81BB810E948D03FF232AF0A9
:10023000ED91FD913196FE93EE9306C0AA81BB81AC
:10024000EFEFFFEFED93FC93198108812596089558
:10025000BA93AA9326970E949A0310E0AC85BD85B5
:10026000E0E0F0E0ED93FC93EA89FB893196EA8BBC
:10027000FB8B3197E4912E2FE03009F415C1E12F6B
:10028000E03039F4253211F411E002C00E943D0340
:100290000AC1E130A9F4253219F40E943D0302C1DC
:1002A00012E040E000E02D3211F401E0FCC02B32FE
:1002B00011F44BE2F8C0203211F440E2F4C002C065
:1002C000E23039F450E013E0203311F40068EBC061
:1002D00003C0E33009F0E7C0203310F02A3308F000
:1002E00007C0AAE05A9F502DE22FE0535E0FDBC0FB
:1002F000E22FE33649F40E944403E889F989A48196
:10030000AA930E944A03CEC0E33741F40E944403FB
:100310000E9450030E941F031E2F0AC0E03761F4A1
:100320000E9444030E9450030E942B031E2F08606A
:1003300002600F7730E034C0E43611F0E93611F492
:10034000046002C0E53731F4E4E5F0E0EE83FF83BA
:1003500015E00CC0E83511F4086003C0E83709F077
:10036000A1C0EEE5F0E0EE83FF8314E002FF14C0CD
:100370000E9444030E945A03AB85AA233AF4EA85FB
:10038000FB850E948403EA87FB874DE2403011F031
:100390001F5F01C00B7F04C00E9444030E945A03E8
:1003A00000FD11C0151778F407FF08C002FF04C054
:1003B0000B7F242F115001C020E301C020E20E94D6
:1003C0003D035150EFCF312F01FF17C03030A1F066
:1003D00003FF06C0EE81FF812591EE83FF8305C0F8
:1003E000AE81BF812D91AE83BF830E943D0350300B
:1003F00009F051503150EACF4BC020E3EE81FF812C
:100400000E949103E887F987EE81FF813296EE839F
:10041000FF83E885F985AA85BB85AE17BF0750F035
:100420002F5FA885B985EA85FB85EA1BFB0BEA8768
:10043000FB87EFCF2A3328F003FF02C0295F01C0FA
:10044000295D04FD1AC0213320F4A885B9851197D0
:1004500009F409C0531710F000FF01C013C020E2D7
:1004600007FF0BC020E3006102FF07C00B7F4A9328
:100470000E944A03503009F051500E943D03503011
:1004800009F051503150A885B985129708F0B5CFC1
:1004900000FF08C0503031F05150E0E2EA930E9472
:1004A0004A03F8CF10E0E0CEAC85BD850E948D03F5
:1004B0000E94A10364960895FF92F82E26970E9449
:1004C0009C030E946203309719F4EFEFFFEF23C003
:1004D000DE0116960E9480038D010E946203EE8366
:1004E000FF83E0E0E887E987DE011A960E94800337
:1004F0000E948D03FA93EA931A930A93E8EEF0E0D0
:10050000FA93EA93DE011A96A3DE9F01AE81BF81C2
:10051000E0E0EC93F9010E94A3032A96FF9008956E
:10052000AA93EBB3EF70AE2FE881E07FEA2BEBBB31
:1005300082E08A95F1F7DA9A82E08A95F1F7DA9803
:1005400082E08A95F1F779C0AA93A881E9DFE88172
:10055000E295E883A881E4DF81E18A95F1F76DC037
:10056000AA93E881F0E0E05AFE4FE081A981AE0F46
:10057000EBDFD980C88022960895A2E00E9469032B
:10058000ACE0E2DFA1E00E946903E0E0CE2EDE2EC7
:100590000895AA93A881AA3021F0E0916401DE16A3
:1005A00048F0E0E0EA93C394AC2DDADFA881AA30EA
:1005B00009F443C0D394D89AA881C6DFD8983DC027
:1005C000BA93AA931A93A981BA81ED91A983BA83A8
:1005D0001E2FE03019F0A12FDCDFF5CF1881239614
:1005E0000895AA93EAB3E06FEABBD29AD09AD19A5F
:1005F000DA98D898D998E881E0936401E058E093BC
:100600006201E881E054E0936301A4E1B0E00E945C
:1006100076030E946F030E946F030E946F03A0E2A3
:100620007FDF81E28A95F1F7A8E28EDFA4E08CDF1C
:10063000A5E88ADFA6E088DFA0DF21960895BA93B7
:10064000AA93A991B991EE27FF276D91662311F026
:100650003196FBCF0895BA93AA93AA27BB27E991B5
:10066000F9910590002011F01196FBCFFD0108953E
:100670000E9488030E94950308952A93AD85BE8544
:10068000EF85F88909950895E889F9893497E88B09
:10069000F98B0895AD85BE85EF85F8890995089594
:1006A000A889B98914960E948D03EE83FF83AE81D9
:1006B000BF810895A889B98914960E948D03EA879D
:1006C000FB870895DE011C960E9480030E948D0323
:1006D00008950E94A402A3E0B0E00C947603A0E386
:1006E0000E94900281E28A95F1F70895109639F000
:1006F000A8958AEF90E00197F1F71197C9F708954F
:100700000024AF0DB01D0895F195E195F0400895D6
:100710006F2F660F660B762F0895ED91FC91119760
:1007200008950590F491E02D08957A936A93FA93D1
:10073000EA9308955A934A933A932A931A930A9301
:1007400008955D814C813B812A811981088108953A
:00000001FF
