:0C0000000C942A000C9400000C940000EA
:10000C000C9400000C9400000C9400000C94000064
:10001C000C9400000C9400000C9400000C94000054
:10002C000C9400000C9400000C9400000C94000044
:10003C000C9400000C9400000C9400000C94000034
:10004C000C9400000C940000F894EE27ECBBF1E04B
:10005C00FBBFEBBFE5BF8DE0A2E0BB27ED938A951C
:10006C00E9F780E094E0A0E6ED930197E9F7EFE57E
:10007C00EDBFE4E0EEBFC0E6D1E00C944500E0E05B
:10008C00EABBEBBBE7BBE8BBE4BBE5BBE0E8E1BB31
:10009C00E0E0E2BB9798A4EFB1E00E945C00979A75
:1000AC00A4EFB1E00E945C00F5CFFFCF109639F0C1
:1000BC00A8958AEF90E00197F1F71197C9F7089589
:00000001FF
