:060000000C9445000C9475
:1000060000000C9400000C9400000C9400000C946A
:1000160000000C9400000C9400000C9400000C945A
:1000260000000C9400000C9400000C9400000C944A
:1000360000000C9400000C9400000C9400000C943A
:1000460000000C9400000C9400000C9400000000CA
:1000560074656D70203D20252E3264002D4E414E74
:10006600000080C001002D4E414E00494E46000062
:1000760002000400540002006A01680001006E01DB
:100086006A000000F894EE27ECBBF1E0FBBFEBBF83
:10009600E5BF8DE0A2E0BB27ED938A95E9F780E006
:1000A60094E0A0E6ED930197E9F7E6E7F0E08591A5
:1000B6009591009761F0A591B59105901590BF01B6
:1000C600F00105900D920197E1F7FB01F0CFEFE506
:1000D600EDBFE4E0EEBFC0E6D1E00C948000AA9349
:1000E600E881E7B983E08A95F1F7369A349BFECF2B
:1000F600349AE4B1F5B10C949A04E0E0E7B9E1E88A
:10010600E6B9E0E0E0BFA0E10E946F04A3E0E7DF0C
:100116002F010E94A505DF01CB01E3E3F3E363E0D2
:1001260070E40E94F9070E94EA062F01E0E6F1E07A
:10013600FA93EA93E6E5F0E0FA93EA93F2010E9475
:1001460070080E94E20884E00E94DC0328960E9460
:100156003D04A0E6B1E00E945E04A8ECB0E00E9477
:10016600AB06D4CFFFCFBA93AA931A930A93AA8168
:10017600BB8112960E94C908309729F1AA81BB81DA
:1001860014960E94C9088F01309761F00230E0E0B2
:100196001E0780F0F80131978F01AA81BB81149662
:1001A600ED93FC93AA81BB8112960E94AA05319712
:1001B600AC81A083AA81BB810E94C908FF2312F0EB
:1001C6000E94AA0506C0AA81BB81EFEFFFEFED935F
:1001D600FC9319810881259608950E94B005E0E8F0
:1001E600EA83EFE3EB830E94FF08EE85FF85EF3F8E
:1001F600AFEFFA0749F4E885F985FA93EA93A2E6A0
:10020600B0E00E949C04B7C0EF3FAFE7FA0749F49D
:10021600E885F985FA93EA93A3E6B0E00E949C0488
:10022600AAC0AB85A73010F0E6E0EB871B85E12F6F
:100236001150E03019F00E94B705F9CFEC85FD8525
:100246006E857F850E94F90821F430E00E94B7058B
:100256002DC03B850E94C60509F008F40BC00E941C
:10026600B7050E94C60528F00E94D1050E94D60552
:10027600F8CF0DC00E94C60540F40E94D1050E9429
:10028600E2050E94E9053150F5CF0E94B705EC85DD
:10029600FD856E857F850E94EE050E94E9050E9418
:1002A600C60520F00E94D1050E94D60510E0EB8518
:1002B600E117A8F1AC81BD818E819F810E94F50571
:1002C6000E94EE05DF01CB010E94F304EC83FD835F
:1002D6006E837F830E94D1050E94F9070E94E8067B
:1002E6000E2F0E94FC050E940306FF27662777272C
:1002F6000E942107AC81BD818E819F810E94AB0740
:100306000E94D1050E9408060E94E905E12F1F5FA1
:10031600E03069F60E94FC05EEE2EC93C8CF0E943D
:100326000D063197AA85A08330302CF43195A88527
:10033600B985EDE203C0A885B985EBE2EC930E948E
:100346000D060E940D063197BF01A32FEAE00E9419
:100356008308E05DDB01EC930E940D063197BF0137
:10036600A32FEAE00E94AD08E05DDB01EC93A885CF
:10037600B985E0E0EC930E94060960960895BA9369
:10038600AA93EF9761970E94FD0810E0FE01E85AD4
:10039600FF4F0190F081E02DE887F987FE01EA5AC8
:1003A600FF4F0190F081E02DEE83FF83AE81BF8188
:1003B600E0E0F0E0ED93FC93DE01A45ABF4F0E940B
:1003C600AA053197E4912E2FE03009F4E9C1E12F17
:1003D600E03039F4253211F411E002C00E94130610
:1003E600DEC1E130C1F4253219F40E941306D6C1EC
:1003F60012E0E0E0ED8B00E02D3211F401E0CFC118
:100406002B3219F4EBE2ED8BCAC1203219F4E0E28B
:10041600ED8BC5C102C0E23039F450E013E0203361
:1004260011F40068BCC102C0E33091F4203310F02F
:100436002A3308F007C0AAE05A9F502DE22FE05356
:100446005E0FADC140E02E3211F414E0A8C10FC01A
:10045600E43099F4203310F02A3308F008C0006223
:10046600AAE04A9F402DE22FE0534E0F98C12C364A
:1004760019F4026015E093C103C0E53009F08FC19D
:10048600E22FE33659F40E941A060E9421060E94C2
:100496001A06A481AA930E94280680C1E53411F0A9
:1004A600E53609F403C0E63609F048C0FE01769643
:1004B600EE87FF870E942E060E94CD080E94350611
:1004C6000E943A06AD85AA2332F0AD89AB3259F0C7
:1004D600A03281F017C00E943C060E94B5060E9419
:1004E6003506EDE2ED8B07FF05C0ED89EA930E9424
:1004F600280608C0EE85FF853196EE87FF8731977F
:10050600AD89A08305FF46E0263651F40E943C06DD
:100516000E94E2084A93AB89BC890E940A0509C079
:100526000E943C060E94E2084A932A93AC89BD8940
:1005360054DEFE0176960E9441061EC0E33739F46A
:100546000E943A060E9449060E9441060EC0E03704
:10055600C1F40E943A060E944906EE87FF87AE85DF
:10056600BF850E94B5041E2F08600F77403011F03A
:10057600411708F001C0142F40E0E0E0EC8B30E0BA
:100586006DC0E43611F0E93611F4046002C0E537B7
:10059600A1F4EAE0EC8B01FF08C0E0E0FAEC6AE9BE
:1005A6007BE30E944E061AE022C0E0E1F7E260E03B
:1005B60070E00E944E0615E01AC0E83511F4086096
:1005C60003C0E83709F0EAC0E0E1EC8B01FF08C0A0
:1005D600E0E0F0E060E070E10E944E0618E007C03F
:1005E600E0E0F0E160E070E00E944E0614E040308A
:1005F60011F00F7701C041E001FF08C00E943A06E2
:100606000E942E0614960E94CD080FC002FF07C056
:100616000E943A060E9449060E94700806C00E947F
:100626003A060E94490666277727EA87FB876C8782
:100636007D8702FF12C0AD85AA2342F40E943C06C4
:100646000E9462080E943506EDE2ED8BED89E030EE
:1006560019F01F5F4F5F01C00B7F342F00FD14C0E0
:10066600151710F4351708F00FC007FF08C002FF72
:1006760004C00B7F2D89115001C020E301C020E288
:100686000E9413065150ECCF141790F4006102FF3C
:1006960006C00E94530609F0515011504150E0E344
:1006A600EA930E942806503009F051504150ECCF91
:1006B600312FEC89E030B9F43030A1F003FF06C0E9
:1006C600EE85FF852591EE87FF8705C0AE85BF8540
:1006D6002D91AE87BF870E941306503009F0515006
:1006E6003150EACF51C00E9465060E9488082E2F1D
:1006F6002A3030F003FF02C0295C01C0295A01C02C
:10070600205D04FD21C0213360F4A889B9898A8956
:100716009B89A130E0E0BE07E0E08E07E0E09E079F
:1007260009F40BC0431740F4531710F000FF01C043
:1007360010C020E207FF08C020E3006102FF04C0EA
:100746000E94530609F051500E941306503009F0DA
:10075600515031500E9465060E94B9080E94350624
:10076600EC89A889B9898A899B89FF276627772713
:100776000E9488080E944E06E889F9896A897B8961
:100786000E94F90809F0AFCF00FF08C0503031F0E1
:100796005150E0E2EA930E942806F8CF10E00CCE12
:1007A600AE81BF810E94C9080E940409EF966F9628
:1007B6000895FF92F82E26970E94FF080E946E0663
:1007C600309719F4EFEFFFEF23C0DE0116960E9473
:1007D6005E088D010E946E06EE83FF83E0E0E887E7
:1007E600E987DE011A960E945E080E94C908FA93FC
:1007F600EA931A930A93E6EBF0E0FA93EA93DE01A2
:100806001A96BDDD9F01AE81BF81E0E0EC93F90150
:100816000E9406092A96FF900895AA93EBB3EF70FB
:10082600AE2FE881E07FEA2BEBBB82E08A95F1F7F9
:10083600DA9A82E08A95F1F7DA9882E08A95F1F7FA
:1008460076C0AA93A881E9DFE881E295E883A881CA
:10085600E4DF81E18A95F1F76AC0AA93E881F0E0C6
:10086600E659FE4FE081A981AE0FEBDF7980688003
:1008760022960895A2E00E947506ACE0E2DFA1E0B0
:100886000E947506E0E06E2E7E2E0895AA93A8813A
:10089600AA3011F0791448F0E0E0EA936394A62DAB
:1008A600DCDFA881AA3009F442C07394D89AA881E3
:1008B600C8DFD8983CC0BA93AA931A93A981BA8183
:1008C600ED91A983BA831E2FE03019F0A12FDEDF48
:1008D600F5CF188123960895AA93EAB3E06FEABB91
:1008E600D29AD09AD19ADA98D898D9989880E881ED
:1008F600E058E0936C01E881E054E0936D01A4E1D7
:10090600B0E00E94AB060E947B060E947B060E9416
:100916007B06A0E282DF81E28A95F1F7A8E291DF09
:10092600A4E08FDFA5E88DDFA6E08BDFA3DF2196AD
:100936000895BA93AA93E991F991A991B991CD0134
:1009460005900D920020E1F7FC010895BA93AA9351
:10095600A991B991EE27FF276D91662311F0319683
:10096600FBCF0895BA93AA93AA27BB27E991F991D9
:100976000590002011F01196FBCFFD0108950E940D
:10098600E7087B816A81F981E88177FB770F67FD4C
:100996007160972F9E5781F078F0983190F4AA27CE
:1009A600BB27882708948795B795A7959A95D1F779
:1009B600EA23FB23682305C0E8947727EE27FF2761
:1009C60066276F77769508F4606877F9A991B991EB
:1009D60089919991EA17FB076807790797FB0895AC
:1009E6000E94E7080E94D8080E94C2040E94DD08FF
:1009F60019F40E94D30809C0E6F70E94D308A0E0C4
:100A0600B0E080E89FE30E94540724960895A5D09D
:100A1600E0E0EA83EFE3EB831A930A93EB85FC8528
:100A2600EF3FAFEFFA0731F46AD1ACE6B0E00E94CF
:100A36009C0484C0EF3FAFE7FA0731F460D1ADE61E
:100A4600B0E00E949C047AC0AC85AA2352F4E985E2
:100A5600FA856B857C850E94B50656D15AD1EDE2A2
:100A6600EC93A885A73010F0E6E0E8871885E12F1B
:100A76001150E03021F054D1B5D057D1F8CF5AD12A
:100A86000E945B0741D110E0E0E0F0E060E87FE320
:100A96004CD150D10E943E0868F042D190D045D149
:100AA6001F5F173230F02BD1A1E7B0E00E949C0403
:100AB60045C0EFCF103021F42CD1E0E3EC931DC0FC
:100AC600E12F1150E030C9F02BD18CD084D0DF015A
:100AD600CB010E94F30429D12DD10E94F9070E946F
:100AE600E8060E2F16D18CD0F0E01AD12BD00E943A
:100AF600AB0729D18AD008D1E3CFE885E030D1F021
:100B060008D1EEE2EC93E885E150E887EF5F91F0DB
:100B16001AD155D0F9D0E985FA856B857C850E9476
:100B2600E8060E2FF6D06CD0F0E00DD10BD06DD0CC
:100B3600EBD0E9CFAE81BF81E0E0EC93198108816B
:100B46002D9608950E9470080E9421070895ED9140
:100B5600FD913196FE93EE930895BA93AA93249746
:100B6600E0E0E883E9830895AC81BD818E819F81B1
:100B7600E0E0F0E060E271E40E94AB07EC83FD8305
:100B86006E837F830895EC81FD816E817F81AC85C4
:100B9600BD858E859F850E943E080895AC85BD85DE
:100BA6008E859F850895EDECFCEC6CEC7DE30E9450
:100BB600AB07EC87FD876E877F873F5F0895E0E090
:100BC600F0E060E271E40E94AB070895EC87FD87D0
:100BD6006E877F870895A0E0B0E080E09FE30E94E3
:100BE6005B070895EDECFCEC6CEC7DE30E94AB0733
:100BF6000895A885B9851196A887B987119708958C
:100C0600E02FE05DEC93E02F08950E94EC080E942F
:100C160054070895E885F9853196E887F987089598
:100C26002A93AF81B885E985FA8509950895FE016D
:100C3600E65AFF4F0190F081E02D08953497DE01CA
:100C4600A65ABF4FED93FC930895AF81B885E98509
:100C5600FA8509950895DE01A65ABF4F0D90BC91FD
:100C6600A02D0895EA87FB876C877D870895DFDFCF
:100C7600E5CFEA85FB856C857D850895EE87FF8740
:100C8600AE85BF850E94A9041E2F0895E4DF149641
:100C96000E94C9080895E88BF98B6A8B7B8B0895AF
:100CA6000B7FED89EA93DE01A95ABF4F0D90BC91E7
:100CB600A02DFE01E75AFF4F0190F081E02D099526
:100CC60050300895E889F9896A897B89AA85BB85A8
:100CD6008C859D850895DE011C960E945E080E9403
:100CE600C90808950E942404A3E0B0E00C94AB0662
:100CF600A0E30E94100481E28A95F1F70895EE813F
:100D0600FF81FA93EA930895E987FA876B877C87D0
:100D16000895AE81BF811196AE83BF831197089562
:100D2600AA81BB818C819D810895EA83FB836C83B4
:100D36007D830895EA81FB816C817D81A985BA85D1
:100D46008B859C850895A985BA858B859C85089594
:100D5600109639F0A8958AEF90E00197F1F7119770
:100D6600C9F7089530976040704009F070580895AB
:100D7600552342F4503811F4E0FF04C03196691F40
:100D8600791F6BF050E8572711F45F93CFC05F3F90
:100D960031F0660F000C57956795752F08955F9390
:100DA60000200AF0CFC0C8C050E8192E1522880FBF
:100DB600991F9527550F879550E8072E0522660F30
:100DC600771F7527550F67950895689401C0E894B5
:100DD6005F93F2DF703818F07F3F08F4A7C056E142
:100DE600571BAAF4519558300EF4593030F0EFEFF6
:100DF600FFEF6FEF7FE777F91AC077275523B9F032
:100E0600EE0FFF1F661F771F5A95D1F710C0772781
:100E1600583028F0EF2FF62F672F5850F9CF55236B
:100E260031F076956795F795E7955A95D1F70020B5
:100E36000AF445D15F910895689401C0E89430970B
:100E460060407040B1F0002426F0772312F400943D
:100E560036D1172E7EE1112032F07A95EE0FFF1F64
:100E6600661F111CF9CFEF2FF62F612D5F938ADFD6
:100E76005F9108954F93AF01FD01DA01AB01BC010B
:100E8600CA01402D012C142E4F910895EA0FFB1F25
:100E9600681F0895E095F0956095EF5FFF4F6F4FDF
:100EA60008955F9381DF903871F150E8152604C0EC
:100EB6005F937ADF903839F1703821F1572F591B3B
:100EC6002BF112F4D7DFFACF583118F0AA27BB2737
:100ED6008827583028F0AB2FB82F88275850F9CFDD
:100EE600552329F08695B795A7955A95D9F7502D8C
:100EF600512572F0CBDF38F46795F795E795739532
:100F060013F420C0B7DF3EDF5F910895D8F7FBCF1B
:100F1600EA1BFB0B680B51F010F40094BBDF662351
:100F260092F3EE0FFF1F661F7A95CBF7EE27FF278A
:100F3600662777275F910895EFEFFFEF6FE77FEF63
:100F46005F910895EFEFFFEF6FE77FE75F910895F9
:100F56005F932ADF703851F3903841F301240894E7
:100F6600791F23F41CF300203AF3ECCF0F921F9362
:100F76002F933F934F93112722279927689FA0010C
:100F86008F9F302D410D591F6B9F300D411D591FED
:100F96008E9F27D0BF9F25D06A9F23D0BE9F1DD08E
:100FA600AF9F1BD0AE9F110D291F391F491F591F17
:100FB600E32FF42F652F522F4F913F912F911F91C1
:100FC6000F9066232AF0550FEE1FFF1F661F02C003
:100FD60073954BF2CDDE5F910895100D211D391FDB
:100FE60002C0200D311D491F591F08955F93DCDE95
:100FF600703821F411200AF49FCFA4CF903809F459
:1010060095CF01240894970B1BF4D4F30020F3CF5B
:10101600792F1F932F933F934F9311241127222744
:1010260033274427552790E2AE17BF0786074107A7
:1010360030F0AE1BBF0B860B410B089401C08894A1
:10104600551F221F331F111CAA1FBB1F881F441FB9
:101056009A9551F7F901612D4F913F912F911F916B
:10106600662332F0550FEE1FFF1F661F7A9543F277
:101076007FDE5F91089599239AF0772342F09717C0
:1010860048F029F4AE17BF07860720F031F0989490
:1010960088940895989408940895189488940895C7
:1010A6007723C2F7971798F3A9F7EA17FB0768079C
:1010B60088F399F3ECCF0024AF0DB01D0895F09599
:1010C60060957095E195FF4F6F4F7F4F0895FE2F06
:1010D600FF0FFF0B6F2F7F2F08956F2F660F660B85
:1010E600762F0895002498E0AA0F001C0E1A10F41B
:1010F6000E0E01C0A1609A95B9F7EA2FA02D0895AA
:1011060039D0F0DF0EF4E19508953F934F935F9346
:10111600002411244427552730E2AA0FBB1F881F3D
:10112600991F001C111C441F551F0E1A1F0A460B3F
:10113600570B28F40E0E1F1E461F571F01C0A16035
:101146003A9559F7FD01BC01D001CA015F914F9153
:101156003F910895E894A7FF02C0A1956894E7FD22
:10116600E195C0DFEA2F0EF4E1950895CEDFFD018B
:10117600BC010895E894E7FF02C0E1956894A7FFD3
:1011860004C0A19500F8039400FA0895ED91FC912E
:1011960011970895ED91FD916D917C9113970895A6
:1011A600E881F9816A817B810895A881B9818A8164
:1011B6009B810895E883F9836A837B8308957A93F4
:1011C6006A93FA93EA9308959A938A93BA93AA93A1
:1011D6000895182E862F612D192E972F712D1B2EEF
:1011E600BF2FF12D1A2EAE2FE12D089530976040B6
:1011F600704008955A934A933A932A931A930A93FE
:1012060008955D814C813B812A8119810881089569
:00000001FF
