:0C0000000C942F000C945C000C945F002A
:10000C000C9400000C9400000C9400000C94000064
:10001C000C9400000C9400000C9400000C94000054
:10002C000C9400000C9400000C9400000C94000044
:10003C000C9400000C9400000C9400000C94000034
:10004C000C9400000C94000080C00200600154006D
:10005C000000F894EE27ECBBF1E0FBBFEBBFE5BF73
:10006C008DE0A2E0BB27ED938A95E9F780E094E060
:10007C00A0E6ED930197E9F7E6E5F0E0859195911F
:10008C00009761F0A591B59105901590BF01F00115
:10009C0005900D920197E1F7FB01F0CFEFE5EDBF75
:1000AC00E4E0EEBFC0E6D1E00C947000A6D0A1E372
:1000BC0002C0A3D0A2E363D0E991EFBFF991E9911B
:1000CC00B991A9919991899179916991F990199026
:1000DC0009901895E0E0EABBEBBBE7BBE8BBE4BBDF
:1000EC00E5BBE1BBECE0E2BBEBB7E06CEBBFEBE0FC
:1000FC00E5BFE0E0E4BFE0ECEABFA0E154D07894C7
:10010C00A1E63DD0A4EFB1E00E941C01F9CFFFCFD6
:10011C00AA93EBB3EF70AE2FE881E07FEA2BEBBB39
:10012C0082E08A95F1F7DA9A82E08A95F1F7DA980B
:10013C0082E08A95F1F75FC0AA93A881E9DFE88194
:10014C00E295E883A881E4DF81E18A95F1F753C059
:10015C00AA93E881F0E0E05AFE4FE081A981AE0F4E
:10016C00EBDF5980488022960895A2E054D0ACE091
:10017C00E3DFA1E050D0E0E04E2E5E2E0895AA936E
:10018C00A881AA3011F0571440F0E0E0EA934394B0
:10019C00A42DDEDFA881AA3071F15394D89AA881DE
:1001AC00CBDFD89828C0AA93EAB3E06FEABBD29A07
:1001BC00D09AD19ADA98D898D9987880E881E05872
:1001CC00E0936201E881E054E0936301A4E1B0E0C4
:1001DC000E941C0125D024D023D0A0E299DF81E21B
:1001EC008A95F1F7A8E2A8DFA4E0A6DFA5E8A4DFD2
:1001FC00A6E0A2DFBADF219608950A921A92FA922B
:10020C006A937A938A939A93AA93BA93EA93FA93FA
:10021C00EFB7EA93089590DFA3E0B0E00C941C01D3
:10022C00A0E376DF81E28A95F1F70895109639F014
:10023C00A8958AEF90E00197F1F71197C9F7089507
:00000001FF
