:060000000C9442000C9478
:1000060000000C9400000C9400000C9400000C946A
:1000160000000C9400000C9400000C9400000C945A
:1000260000000C9400000C946F000C9400000C94DB
:10003600A1000C9400000C9400000C9400000C9499
:1000460000000C9400000C9400000C940000102793
:10005600E80364000A00010000100001100001001E
:10006600000000000000000080C0010002006600E1
:10007600060004006800020070016E000000F8949B
:10008600EE27ECBBF1E0FBBFEBBFE5BF8DE0A2E0E6
:10009600BB27ED938A95E9F780E094E0A0E6ED931F
:1000A6000197E9F7E0E7F0E085919591009761F017
:1000B600A591B59105901590BF01F00105900D929F
:1000C6000197E1F7FB01F0CFEFE5EDBFE4E0EEBF0E
:1000D600C0E6D1E00C94B800EA93FA93EFB7EA933E
:1000E6001A930A931BB10CB1E12FEC7189F4E52D3B
:1000F6005394F0E0E05AFE4F0083E8E0E51509F47A
:1001060055247394E8E0E71519F47724689420F8E9
:100116000991199125C01A937720F1F3E42D4394A0
:10012600F0E0E05AFE4F1081E8E0E41509F44424BB
:10013600F8947A947894E12F19910895EA93FA93B2
:10014600EFB7EA93882061F08A94E92D9394F0E062
:10015600E859FE4FE081ECB9E8E0E91509F4992485
:10016600E991EFBFF991E9911895E0E0EBB9E8ED77
:10017600EAB9E6E8E0BDE0E0E0BDECE0E9B9A0E11F
:1001860053D07894C8DFAE2F3BD0FCCFFFCFAA93D5
:10019600EBB3EF70AE2FE881E07FEA2BEBBB82E09A
:1001A6008A95F1F7DA9A82E08A95F1F7DA9882E091
:1001B6008A95F1F764C0AA93A881E9DFE881E29500
:1001C600E883A881E4DF81E18A95F1F758C0AA9314
:1001D600E881F0E0E059FE4FE081A981AE0FEBDF48
:1001E600B980A88022960895A2E00E944401ACE05E
:1001F600E2DFA1E00E944401E0E0AE2EBE2E0895AB
:10020600AA93A881AA3011F0BD1440F0E0E0EA9369
:10021600A394AA2DDCDFA881AA3089F1B394D89AD9
:10022600A881C9DFD8982BC0AA93EAB3E06FEABBCE
:10023600D29AD09AD19ADA98D898D998D880E88163
:10024600E058E0937201E881E054E0937301A4E181
:10025600B0E00E9451010E944A010E944A010E9498
:100266004A01A0E294DF81E28A95F1F7A8E2A3DFD2
:10027600A4E0A1DFA5E89FDFA6E09DDFB5DF21961C
:1002860008950E94DE00A3E0B0E00C945101A0E3C3
:100296000E94CA0081E28A95F1F70895109639F016
:1002A600A8958AEF90E00197F1F71197C9F708959D
:00000001FF
