:080000000C942F000C945C002D
:100008000C945D000C9400000C9400000C9400000B
:100018000C9400000C9400000C9400000C94000058
:100028000C9400000C9400000C9400000C94000048
:100038000C9400000C9400000C9400000C94000038
:100048000C9400000C9400000C94000000000200C6
:10005800040054000000F894EE27ECBBF1E0FBBF6D
:10006800EBBFE5BF8DE0A2E0BB27ED938A95E9F7EA
:1000780080E094E0A0E6ED930197E9F7E6E5F0E08B
:1000880085919591009761F0A591B591059015908E
:10009800BF01F00105900D920197E1F7FB01F0CF48
:1000A800EFE5EDBFE4E0EEBFC0E6D1E00C945E0002
:1000B80018951895E0E0EABBEBBBEFE0E7BBE0E0A2
:1000C800E8BBE4BBE5BBE1BBECE0E2BBEBB7E06C53
:1000D800EBBFEAE0E5BFE0E0E4BFE0ECEABF78941C
:1000E800E1E0E6BB44245524E4E0F0E04E165F0668
:1000F8005CF4A8ECB0E00E948A00E8B3EE0FE8BB1D
:10010800F20131962F01F0CFEBCFFFCF109639F0E7
:10011800A8958AEF90E00197F1F71197C9F708952C
:00000001FF
